{
  "contractName": "EmailStorage",
  "abi": [
    {
      "constant": false,
      "inputs": [
        {
          "name": "_address",
          "type": "address"
        }
      ],
      "name": "removeOwner",
      "outputs": [],
      "payable": false,
      "stateMutability": "nonpayable",
      "type": "function"
    },
    {
      "constant": false,
      "inputs": [
        {
          "name": "usernameHash",
          "type": "bytes32"
        }
      ],
      "name": "setUsernameHash",
      "outputs": [],
      "payable": false,
      "stateMutability": "nonpayable",
      "type": "function"
    },
    {
      "constant": false,
      "inputs": [
        {
          "name": "usernameHash",
          "type": "bytes32"
        },
        {
          "name": "addr",
          "type": "address"
        },
        {
          "name": "encryptedUsername",
          "type": "string"
        },
        {
          "name": "publicKey",
          "type": "string"
        }
      ],
      "name": "userRegistered",
      "outputs": [],
      "payable": false,
      "stateMutability": "nonpayable",
      "type": "function"
    },
    {
      "constant": false,
      "inputs": [
        {
          "name": "usernameHash",
          "type": "bytes32"
        },
        {
          "name": "ipfsHash",
          "type": "string"
        }
      ],
      "name": "contactsUpdated",
      "outputs": [],
      "payable": false,
      "stateMutability": "nonpayable",
      "type": "function"
    },
    {
      "constant": true,
      "inputs": [
        {
          "name": "usernameHash",
          "type": "bytes32"
        }
      ],
      "name": "getUsernameHash",
      "outputs": [
        {
          "name": "",
          "type": "bool"
        }
      ],
      "payable": false,
      "stateMutability": "view",
      "type": "function"
    },
    {
      "constant": false,
      "inputs": [
        {
          "name": "from",
          "type": "address"
        },
        {
          "name": "to",
          "type": "address"
        },
        {
          "name": "mailHash",
          "type": "string"
        },
        {
          "name": "threadHash",
          "type": "string"
        },
        {
          "name": "threadId",
          "type": "bytes32"
        }
      ],
      "name": "emailSent",
      "outputs": [],
      "payable": false,
      "stateMutability": "nonpayable",
      "type": "function"
    },
    {
      "constant": false,
      "inputs": [
        {
          "name": "_address",
          "type": "address"
        }
      ],
      "name": "addOwner",
      "outputs": [],
      "payable": false,
      "stateMutability": "nonpayable",
      "type": "function"
    },
    {
      "inputs": [],
      "payable": false,
      "stateMutability": "nonpayable",
      "type": "constructor"
    },
    {
      "anonymous": false,
      "inputs": [
        {
          "indexed": true,
          "name": "usernameHash",
          "type": "bytes32"
        },
        {
          "indexed": true,
          "name": "addr",
          "type": "address"
        },
        {
          "indexed": false,
          "name": "encryptedUsername",
          "type": "string"
        },
        {
          "indexed": false,
          "name": "publicKey",
          "type": "string"
        }
      ],
      "name": "UserRegistered",
      "type": "event"
    },
    {
      "anonymous": false,
      "inputs": [
        {
          "indexed": true,
          "name": "from",
          "type": "address"
        },
        {
          "indexed": true,
          "name": "to",
          "type": "address"
        },
        {
          "indexed": false,
          "name": "mailHash",
          "type": "string"
        },
        {
          "indexed": false,
          "name": "threadHash",
          "type": "string"
        },
        {
          "indexed": true,
          "name": "threadId",
          "type": "bytes32"
        }
      ],
      "name": "EmailSent",
      "type": "event"
    },
    {
      "anonymous": false,
      "inputs": [
        {
          "indexed": true,
          "name": "usernameHash",
          "type": "bytes32"
        },
        {
          "indexed": false,
          "name": "ipfsHash",
          "type": "string"
        }
      ],
      "name": "ContactsUpdated",
      "type": "event"
    }
  ],
  "bytecode": "0x6060604052341561000f57600080fd5b60018060003373ffffffffffffffffffffffffffffffffffffffff1673ffffffffffffffffffffffffffffffffffffffff16815260200190815260200160002060006101000a81548160ff021916908315150217905550610aaf806100756000396000f300606060405260043610610083576000357c0100000000000000000000000000000000000000000000000000000000900463ffffffff168063173825d914610088578063237908ed146100c1578063399d13bd146100e857806348b8e02e146101b457806362e97e761461021e57806368e753371461025d5780637065cb4814610348575b600080fd5b341561009357600080fd5b6100bf600480803573ffffffffffffffffffffffffffffffffffffffff16906020019091905050610381565b005b34156100cc57600080fd5b6100e660048080356000191690602001909190505061043b565b005b34156100f357600080fd5b6101b260048080356000191690602001909190803573ffffffffffffffffffffffffffffffffffffffff1690602001909190803590602001908201803590602001908080601f0160208091040260200160405190810160405280939291908181526020018383808284378201915050505050509190803590602001908201803590602001908080601f0160208091040260200160405190810160405280939291908181526020018383808284378201915050505050509190505061050a565b005b34156101bf57600080fd5b61021c60048080356000191690602001909190803590602001908201803590602001908080601f01602080910402602001604051908101604052809392919081815260200183838082843782019150505050505091905050610694565b005b341561022957600080fd5b610243600480803560001916906020019091905050610798565b604051808215151515815260200191505060405180910390f35b341561026857600080fd5b610346600480803573ffffffffffffffffffffffffffffffffffffffff1690602001909190803573ffffffffffffffffffffffffffffffffffffffff1690602001909190803590602001908201803590602001908080601f0160208091040260200160405190810160405280939291908181526020018383808284378201915050505050509190803590602001908201803590602001908080601f0160208091040260200160405190810160405280939291908181526020018383808284378201915050505050509190803560001916906020019091905050610828565b005b341561035357600080fd5b61037f600480803573ffffffffffffffffffffffffffffffffffffffff169060200190919050506109ca565b005b60011515600160003373ffffffffffffffffffffffffffffffffffffffff1673ffffffffffffffffffffffffffffffffffffffff16815260200190815260200160002060009054906101000a900460ff1615151415156103e057600080fd5b6000600160008373ffffffffffffffffffffffffffffffffffffffff1673ffffffffffffffffffffffffffffffffffffffff16815260200190815260200160002060006101000a81548160ff02191690831515021790555050565b60011515600160003373ffffffffffffffffffffffffffffffffffffffff1673ffffffffffffffffffffffffffffffffffffffff16815260200190815260200160002060009054906101000a900460ff16151514151561049a57600080fd5b60001515600080836000191660001916815260200190815260200160002060009054906101000a900460ff1615151415156104d457600080fd5b6001600080836000191660001916815260200190815260200160002060006101000a81548160ff02191690831515021790555050565b60011515600160003373ffffffffffffffffffffffffffffffffffffffff1673ffffffffffffffffffffffffffffffffffffffff16815260200190815260200160002060009054906101000a900460ff16151514151561056957600080fd5b8273ffffffffffffffffffffffffffffffffffffffff1684600019167f6e632cbe1fdce5dfd25bd6898744f6b59ac518c5a5ae2da1250820a7842f2ebc8484604051808060200180602001838103835285818151815260200191508051906020019080838360005b838110156105ec5780820151818401526020810190506105d1565b50505050905090810190601f1680156106195780820380516001836020036101000a031916815260200191505b50838103825284818151815260200191508051906020019080838360005b83811015610652578082015181840152602081019050610637565b50505050905090810190601f16801561067f5780820380516001836020036101000a031916815260200191505b5094505050505060405180910390a350505050565b60011515600160003373ffffffffffffffffffffffffffffffffffffffff1673ffffffffffffffffffffffffffffffffffffffff16815260200190815260200160002060009054906101000a900460ff1615151415156106f357600080fd5b81600019167ffdf27c0ee3d6b70b30efed06f4b550e7902fbc48dd80d9521ab09c7fee953ac2826040518080602001828103825283818151815260200191508051906020019080838360005b8381101561075a57808201518184015260208101905061073f565b50505050905090810190601f1680156107875780820380516001836020036101000a031916815260200191505b509250505060405180910390a25050565b600060011515600160003373ffffffffffffffffffffffffffffffffffffffff1673ffffffffffffffffffffffffffffffffffffffff16815260200190815260200160002060009054906101000a900460ff1615151415156107f957600080fd5b600080836000191660001916815260200190815260200160002060009054906101000a900460ff169050919050565b60011515600160003373ffffffffffffffffffffffffffffffffffffffff1673ffffffffffffffffffffffffffffffffffffffff16815260200190815260200160002060009054906101000a900460ff16151514151561088757600080fd5b80600019168473ffffffffffffffffffffffffffffffffffffffff168673ffffffffffffffffffffffffffffffffffffffff167f8e2b31a56259763b0b2e1ba74e7cbf7ce85f374680c36a242e35b4737e4121838686604051808060200180602001838103835285818151815260200191508051906020019080838360005b83811015610921578082015181840152602081019050610906565b50505050905090810190601f16801561094e5780820380516001836020036101000a031916815260200191505b50838103825284818151815260200191508051906020019080838360005b8381101561098757808201518184015260208101905061096c565b50505050905090810190601f1680156109b45780820380516001836020036101000a031916815260200191505b5094505050505060405180910390a45050505050565b60011515600160003373ffffffffffffffffffffffffffffffffffffffff1673ffffffffffffffffffffffffffffffffffffffff16815260200190815260200160002060009054906101000a900460ff161515141515610a2957600080fd5b60018060008373ffffffffffffffffffffffffffffffffffffffff1673ffffffffffffffffffffffffffffffffffffffff16815260200190815260200160002060006101000a81548160ff021916908315150217905550505600a165627a7a72305820e3cf7f82d2001706ff0ef4b1d8be8f7c1e23b85057b12d69040cd909da435a6b0029",
  "source": "pragma solidity ^0.4.11;\n\ncontract EmailStorage {\n    \n    modifier onlyOwners {\n        require(owners[msg.sender] == true);\n        _;\n    }\n    \n    mapping(bytes32 => bool) usernameHashExists;\n    mapping(address => bool) owners;\n    \n    event UserRegistered(bytes32 indexed usernameHash, address indexed addr, string encryptedUsername, string publicKey);\n    event EmailSent(address indexed from, address indexed to, string mailHash, string threadHash, bytes32 indexed threadId);\n    event ContactsUpdated(bytes32 indexed usernameHash, string ipfsHash);\n    \n    function EmailStorage() public {\n        owners[msg.sender] = true;\n    }\n    \n    function userRegistered(bytes32 usernameHash, address addr, string encryptedUsername, string publicKey) public onlyOwners {\n        UserRegistered(usernameHash, addr, encryptedUsername, publicKey);\n    }\n    \n    function emailSent(address from, address to, string mailHash, string threadHash, bytes32 threadId) public onlyOwners {\n        EmailSent(from, to, mailHash, threadHash, threadId);\n    }\n    \n    function contactsUpdated(bytes32 usernameHash, string ipfsHash) public onlyOwners {\n        ContactsUpdated(usernameHash, ipfsHash);\n    }\n    \n    function getUsernameHash(bytes32 usernameHash) public constant onlyOwners returns(bool) {\n        return usernameHashExists[usernameHash];\n    }\n    \n    function setUsernameHash(bytes32 usernameHash) public onlyOwners {\n        require(usernameHashExists[usernameHash] == false);\n\n        usernameHashExists[usernameHash] = true;\n    }\n    \n    //owner modification\n    function addOwner(address _address) public onlyOwners {\n        owners[_address] = true;\n    }\n    \n    function removeOwner(address _address) public onlyOwners {\n        owners[_address] = false;\n    }\n}",
  "sourcePath": "/home/nenad/Desktop/web/blockchain/MelonMail/solidity/contracts/EmailStorage.sol",
  "compiler": {
    "name": "solc",
    "version": "0.4.18+commit.9cf6e910.Emscripten.clang"
  },
  "schemaVersion": "1.0.1",
  "updatedAt": "2017-11-01T12:04:17.808Z"
}