{
  "contractName": "PublicEmail",
  "abi": [
    {
      "constant": false,
      "inputs": [
        {
          "name": "usernameHash",
          "type": "bytes32"
        },
        {
          "name": "ipfsHash",
          "type": "string"
        }
      ],
      "name": "updateContacts",
      "outputs": [],
      "payable": false,
      "stateMutability": "nonpayable",
      "type": "function"
    },
    {
      "constant": false,
      "inputs": [
        {
          "name": "usernameHash",
          "type": "bytes32"
        },
        {
          "name": "encryptedUsername",
          "type": "string"
        },
        {
          "name": "publicKey",
          "type": "string"
        }
      ],
      "name": "registerUser",
      "outputs": [],
      "payable": false,
      "stateMutability": "nonpayable",
      "type": "function"
    },
    {
      "constant": true,
      "inputs": [],
      "name": "emailStorage",
      "outputs": [
        {
          "name": "",
          "type": "address"
        }
      ],
      "payable": false,
      "stateMutability": "view",
      "type": "function"
    },
    {
      "constant": false,
      "inputs": [
        {
          "name": "recipients",
          "type": "address[]"
        },
        {
          "name": "mailHash",
          "type": "string"
        },
        {
          "name": "threadHash",
          "type": "string"
        },
        {
          "name": "threadId",
          "type": "bytes32"
        }
      ],
      "name": "sendEmail",
      "outputs": [],
      "payable": false,
      "stateMutability": "nonpayable",
      "type": "function"
    },
    {
      "constant": false,
      "inputs": [
        {
          "name": "externalContractAddress",
          "type": "address"
        },
        {
          "name": "recipients",
          "type": "address[]"
        },
        {
          "name": "mailHash",
          "type": "string"
        },
        {
          "name": "threadHash",
          "type": "string"
        },
        {
          "name": "threadId",
          "type": "bytes32"
        }
      ],
      "name": "sendExternalEmail",
      "outputs": [],
      "payable": false,
      "stateMutability": "nonpayable",
      "type": "function"
    },
    {
      "inputs": [],
      "payable": false,
      "stateMutability": "nonpayable",
      "type": "constructor"
    }
  ],
  "bytecode": "0x6060604052341561000f57600080fd5b610017610140565b604051809103906000f080151561002d57600080fd5b6000806101000a81548173ffffffffffffffffffffffffffffffffffffffff021916908373ffffffffffffffffffffffffffffffffffffffff1602179055506000809054906101000a900473ffffffffffffffffffffffffffffffffffffffff1673ffffffffffffffffffffffffffffffffffffffff16637065cb48336040518263ffffffff167c0100000000000000000000000000000000000000000000000000000000028152600401808273ffffffffffffffffffffffffffffffffffffffff1673ffffffffffffffffffffffffffffffffffffffff168152602001915050600060405180830381600087803b151561012757600080fd5b6102c65a03f1151561013857600080fd5b505050610150565b604051610b3080610cf783390190565b610b988061015f6000396000f30060606040526004361061006d576000357c0100000000000000000000000000000000000000000000000000000000900463ffffffff1680635559610714610072578063641da4a2146100dc578063a53e43b814610189578063bbbc4774146101de578063cf77b505146102cb575b600080fd5b341561007d57600080fd5b6100da60048080356000191690602001909190803590602001908201803590602001908080601f016020809104026020016040519081016040528093929190818152602001838380828437820191505050505050919050506103d7565b005b34156100e757600080fd5b61018760048080356000191690602001909190803590602001908201803590602001908080601f0160208091040260200160405190810160405280939291908181526020018383808284378201915050505050509190803590602001908201803590602001908080601f016020809104026020016040519081016040528093929190818152602001838380828437820191505050505050919050506104f3565b005b341561019457600080fd5b61019c61075c565b604051808273ffffffffffffffffffffffffffffffffffffffff1673ffffffffffffffffffffffffffffffffffffffff16815260200191505060405180910390f35b34156101e957600080fd5b6102c960048080359060200190820180359060200190808060200260200160405190810160405280939291908181526020018383602002808284378201915050505050509190803590602001908201803590602001908080601f0160208091040260200160405190810160405280939291908181526020018383808284378201915050505050509190803590602001908201803590602001908080601f0160208091040260200160405190810160405280939291908181526020018383808284378201915050505050509190803560001916906020019091905050610781565b005b34156102d657600080fd5b6103d5600480803573ffffffffffffffffffffffffffffffffffffffff169060200190919080359060200190820180359060200190808060200260200160405190810160405280939291908181526020018383602002808284378201915050505050509190803590602001908201803590602001908080601f0160208091040260200160405190810160405280939291908181526020018383808284378201915050505050509190803590602001908201803590602001908080601f01602080910402602001604051908101604052809392919081815260200183838082843782019150505050505091908035600019169060200190919050506109a6565b005b6000809054906101000a900473ffffffffffffffffffffffffffffffffffffffff1673ffffffffffffffffffffffffffffffffffffffff166348b8e02e83836040518363ffffffff167c010000000000000000000000000000000000000000000000000000000002815260040180836000191660001916815260200180602001828103825283818151815260200191508051906020019080838360005b8381101561048f578082015181840152602081019050610474565b50505050905090810190601f1680156104bc5780820380516001836020036101000a031916815260200191505b509350505050600060405180830381600087803b15156104db57600080fd5b6102c65a03f115156104ec57600080fd5b5050505050565b6000809054906101000a900473ffffffffffffffffffffffffffffffffffffffff1673ffffffffffffffffffffffffffffffffffffffff1663237908ed846040518263ffffffff167c0100000000000000000000000000000000000000000000000000000000028152600401808260001916600019168152602001915050600060405180830381600087803b151561058a57600080fd5b6102c65a03f1151561059b57600080fd5b5050506000809054906101000a900473ffffffffffffffffffffffffffffffffffffffff1673ffffffffffffffffffffffffffffffffffffffff1663399d13bd843385856040518563ffffffff167c01000000000000000000000000000000000000000000000000000000000281526004018085600019166000191681526020018473ffffffffffffffffffffffffffffffffffffffff1673ffffffffffffffffffffffffffffffffffffffff1681526020018060200180602001838103835285818151815260200191508051906020019080838360005b8381101561068e578082015181840152602081019050610673565b50505050905090810190601f1680156106bb5780820380516001836020036101000a031916815260200191505b50838103825284818151815260200191508051906020019080838360005b838110156106f45780820151818401526020810190506106d9565b50505050905090810190601f1680156107215780820380516001836020036101000a031916815260200191505b509650505050505050600060405180830381600087803b151561074357600080fd5b6102c65a03f1151561075457600080fd5b505050505050565b6000809054906101000a900473ffffffffffffffffffffffffffffffffffffffff1681565b60008090505b845181101561099f576000809054906101000a900473ffffffffffffffffffffffffffffffffffffffff1673ffffffffffffffffffffffffffffffffffffffff166368e753373287848151811015156107dc57fe5b906020019060200201518787876040518663ffffffff167c0100000000000000000000000000000000000000000000000000000000028152600401808673ffffffffffffffffffffffffffffffffffffffff1673ffffffffffffffffffffffffffffffffffffffff1681526020018573ffffffffffffffffffffffffffffffffffffffff1673ffffffffffffffffffffffffffffffffffffffff16815260200180602001806020018460001916600019168152602001838103835286818151815260200191508051906020019080838360005b838110156108ca5780820151818401526020810190506108af565b50505050905090810190601f1680156108f75780820380516001836020036101000a031916815260200191505b50838103825285818151815260200191508051906020019080838360005b83811015610930578082015181840152602081019050610915565b50505050905090810190601f16801561095d5780820380516001836020036101000a031916815260200191505b50975050505050505050600060405180830381600087803b151561098057600080fd5b6102c65a03f1151561099157600080fd5b505050806001019050610787565b5050505050565b60006109b485858585610781565b8590508073ffffffffffffffffffffffffffffffffffffffff1663bbbc4774868686866040518563ffffffff167c0100000000000000000000000000000000000000000000000000000000028152600401808060200180602001806020018560001916600019168152602001848103845288818151815260200191508051906020019060200280838360005b83811015610a5b578082015181840152602081019050610a40565b50505050905001848103835287818151815260200191508051906020019080838360005b83811015610a9a578082015181840152602081019050610a7f565b50505050905090810190601f168015610ac75780820380516001836020036101000a031916815260200191505b50848103825286818151815260200191508051906020019080838360005b83811015610b00578082015181840152602081019050610ae5565b50505050905090810190601f168015610b2d5780820380516001836020036101000a031916815260200191505b50975050505050505050600060405180830381600087803b1515610b5057600080fd5b6102c65a03f11515610b6157600080fd5b5050505050505050505600a165627a7a72305820595bcbf6fd44a05b16961c37038da0fd00257460be7bdbea49809dc2e941241200296060604052341561000f57600080fd5b60018060003373ffffffffffffffffffffffffffffffffffffffff1673ffffffffffffffffffffffffffffffffffffffff16815260200190815260200160002060006101000a81548160ff021916908315150217905550610abb806100756000396000f30060606040526004361061008e576000357c0100000000000000000000000000000000000000000000000000000000900463ffffffff168063022914a714610093578063173825d9146100e45780631eb054471461011d578063237908ed1461015c578063399d13bd1461018357806348b8e02e1461024f57806368e75337146102b95780637065cb48146103a4575b600080fd5b341561009e57600080fd5b6100ca600480803573ffffffffffffffffffffffffffffffffffffffff169060200190919050506103dd565b604051808215151515815260200191505060405180910390f35b34156100ef57600080fd5b61011b600480803573ffffffffffffffffffffffffffffffffffffffff169060200190919050506103fd565b005b341561012857600080fd5b6101426004808035600019169060200190919050506104b7565b604051808215151515815260200191505060405180910390f35b341561016757600080fd5b6101816004808035600019169060200190919050506104d7565b005b341561018e57600080fd5b61024d60048080356000191690602001909190803573ffffffffffffffffffffffffffffffffffffffff1690602001909190803590602001908201803590602001908080601f0160208091040260200160405190810160405280939291908181526020018383808284378201915050505050509190803590602001908201803590602001908080601f016020809104026020016040519081016040528093929190818152602001838380828437820191505050505050919050506105a6565b005b341561025a57600080fd5b6102b760048080356000191690602001909190803590602001908201803590602001908080601f01602080910402602001604051908101604052809392919081815260200183838082843782019150505050505091905050610730565b005b34156102c457600080fd5b6103a2600480803573ffffffffffffffffffffffffffffffffffffffff1690602001909190803573ffffffffffffffffffffffffffffffffffffffff1690602001909190803590602001908201803590602001908080601f0160208091040260200160405190810160405280939291908181526020018383808284378201915050505050509190803590602001908201803590602001908080601f0160208091040260200160405190810160405280939291908181526020018383808284378201915050505050509190803560001916906020019091905050610834565b005b34156103af57600080fd5b6103db600480803573ffffffffffffffffffffffffffffffffffffffff169060200190919050506109d6565b005b60016020528060005260406000206000915054906101000a900460ff1681565b60011515600160003373ffffffffffffffffffffffffffffffffffffffff1673ffffffffffffffffffffffffffffffffffffffff16815260200190815260200160002060009054906101000a900460ff16151514151561045c57600080fd5b6000600160008373ffffffffffffffffffffffffffffffffffffffff1673ffffffffffffffffffffffffffffffffffffffff16815260200190815260200160002060006101000a81548160ff02191690831515021790555050565b60006020528060005260406000206000915054906101000a900460ff1681565b60011515600160003373ffffffffffffffffffffffffffffffffffffffff1673ffffffffffffffffffffffffffffffffffffffff16815260200190815260200160002060009054906101000a900460ff16151514151561053657600080fd5b60001515600080836000191660001916815260200190815260200160002060009054906101000a900460ff16151514151561057057600080fd5b6001600080836000191660001916815260200190815260200160002060006101000a81548160ff02191690831515021790555050565b60011515600160003373ffffffffffffffffffffffffffffffffffffffff1673ffffffffffffffffffffffffffffffffffffffff16815260200190815260200160002060009054906101000a900460ff16151514151561060557600080fd5b8273ffffffffffffffffffffffffffffffffffffffff1684600019167f6e632cbe1fdce5dfd25bd6898744f6b59ac518c5a5ae2da1250820a7842f2ebc8484604051808060200180602001838103835285818151815260200191508051906020019080838360005b8381101561068857808201518184015260208101905061066d565b50505050905090810190601f1680156106b55780820380516001836020036101000a031916815260200191505b50838103825284818151815260200191508051906020019080838360005b838110156106ee5780820151818401526020810190506106d3565b50505050905090810190601f16801561071b5780820380516001836020036101000a031916815260200191505b5094505050505060405180910390a350505050565b60011515600160003373ffffffffffffffffffffffffffffffffffffffff1673ffffffffffffffffffffffffffffffffffffffff16815260200190815260200160002060009054906101000a900460ff16151514151561078f57600080fd5b81600019167ffdf27c0ee3d6b70b30efed06f4b550e7902fbc48dd80d9521ab09c7fee953ac2826040518080602001828103825283818151815260200191508051906020019080838360005b838110156107f65780820151818401526020810190506107db565b50505050905090810190601f1680156108235780820380516001836020036101000a031916815260200191505b509250505060405180910390a25050565b60011515600160003373ffffffffffffffffffffffffffffffffffffffff1673ffffffffffffffffffffffffffffffffffffffff16815260200190815260200160002060009054906101000a900460ff16151514151561089357600080fd5b80600019168473ffffffffffffffffffffffffffffffffffffffff168673ffffffffffffffffffffffffffffffffffffffff167f8e2b31a56259763b0b2e1ba74e7cbf7ce85f374680c36a242e35b4737e4121838686604051808060200180602001838103835285818151815260200191508051906020019080838360005b8381101561092d578082015181840152602081019050610912565b50505050905090810190601f16801561095a5780820380516001836020036101000a031916815260200191505b50838103825284818151815260200191508051906020019080838360005b83811015610993578082015181840152602081019050610978565b50505050905090810190601f1680156109c05780820380516001836020036101000a031916815260200191505b5094505050505060405180910390a45050505050565b60011515600160003373ffffffffffffffffffffffffffffffffffffffff1673ffffffffffffffffffffffffffffffffffffffff16815260200190815260200160002060009054906101000a900460ff161515141515610a3557600080fd5b60018060008373ffffffffffffffffffffffffffffffffffffffff1673ffffffffffffffffffffffffffffffffffffffff16815260200190815260200160002060006101000a81548160ff021916908315150217905550505600a165627a7a72305820a1fa109ac6106af2ec15781e7af23afc6013a3747c494e82ca64d9db0817b3340029",
  "source": "pragma solidity ^0.4.11;\n\nimport './AbstractEmail.sol';\nimport './EmailStorage.sol';\n\ncontract PublicEmail is AbstractEmail {\n\n    EmailStorage public emailStorage;\n\n    function PublicEmail() public {\n        emailStorage = new EmailStorage();\n        emailStorage.addOwner(msg.sender);\n    }\n\n    function registerUser(bytes32 usernameHash, string encryptedUsername, string publicKey) public {\n        emailStorage.setUsernameHash(usernameHash);\n\n        emailStorage.userRegistered(usernameHash, msg.sender, encryptedUsername, publicKey);\n    }\n\n    function sendEmail(address[] recipients, string mailHash, string threadHash, bytes32 threadId) public {\n        \n        for(uint i = 0; i < recipients.length; ++i) {\n            emailStorage.emailSent(tx.origin, recipients[i], mailHash, threadHash, threadId);\n        }\n    }\n\n    function sendExternalEmail(AbstractEmail externalContractAddress, address[] recipients, string mailHash, string threadHash, bytes32 threadId) public {\n        sendEmail(recipients, mailHash, threadHash, threadId);\n\n        AbstractEmail externalEmailContract = AbstractEmail(externalContractAddress);\n        externalEmailContract.sendEmail(recipients, mailHash, threadHash, threadId);\n    }\n\n    function updateContacts(bytes32 usernameHash, string ipfsHash) public {\n        emailStorage.contactsUpdated(usernameHash, ipfsHash);\n    }\n}",
  "sourcePath": "/Users/nenadpalinkasevic/Desktop/blockchain/MelonMail/solidity/contracts/PublicEmail.sol",
  "compiler": {
    "name": "solc",
    "version": "0.4.18+commit.9cf6e910.Emscripten.clang"
  },
  "schemaVersion": "1.0.1",
  "updatedAt": "2017-11-02T14:29:45.095Z"
}