{
  "contractName": "PublicEmailExample",
  "abi": [
    {
      "constant": false,
      "inputs": [
        {
          "name": "adminAddress",
          "type": "address"
        }
      ],
      "name": "removeAdmin",
      "outputs": [],
      "payable": false,
      "stateMutability": "nonpayable",
      "type": "function"
    },
    {
      "constant": true,
      "inputs": [
        {
          "name": "",
          "type": "address"
        }
      ],
      "name": "admins",
      "outputs": [
        {
          "name": "",
          "type": "bool"
        }
      ],
      "payable": false,
      "stateMutability": "view",
      "type": "function"
    },
    {
      "constant": false,
      "inputs": [
        {
          "name": "usernameHash",
          "type": "bytes32"
        },
        {
          "name": "ipfsHash",
          "type": "string"
        }
      ],
      "name": "updateContacts",
      "outputs": [],
      "payable": false,
      "stateMutability": "nonpayable",
      "type": "function"
    },
    {
      "constant": false,
      "inputs": [
        {
          "name": "usernameHash",
          "type": "bytes32"
        },
        {
          "name": "encryptedUsername",
          "type": "string"
        },
        {
          "name": "publicKey",
          "type": "string"
        }
      ],
      "name": "registerUser",
      "outputs": [],
      "payable": false,
      "stateMutability": "nonpayable",
      "type": "function"
    },
    {
      "constant": false,
      "inputs": [
        {
          "name": "adminAddress",
          "type": "address"
        }
      ],
      "name": "addAdmin",
      "outputs": [],
      "payable": false,
      "stateMutability": "nonpayable",
      "type": "function"
    },
    {
      "constant": true,
      "inputs": [],
      "name": "owner",
      "outputs": [
        {
          "name": "",
          "type": "address"
        }
      ],
      "payable": false,
      "stateMutability": "view",
      "type": "function"
    },
    {
      "constant": false,
      "inputs": [
        {
          "name": "recipients",
          "type": "address[]"
        },
        {
          "name": "mailHash",
          "type": "string"
        },
        {
          "name": "threadHash",
          "type": "string"
        },
        {
          "name": "threadId",
          "type": "bytes32"
        }
      ],
      "name": "sendEmail",
      "outputs": [],
      "payable": false,
      "stateMutability": "nonpayable",
      "type": "function"
    },
    {
      "constant": false,
      "inputs": [
        {
          "name": "externalContractAddress",
          "type": "address"
        },
        {
          "name": "recipients",
          "type": "address[]"
        },
        {
          "name": "mailHash",
          "type": "string"
        },
        {
          "name": "threadHash",
          "type": "string"
        },
        {
          "name": "threadId",
          "type": "bytes32"
        }
      ],
      "name": "sendExternalEmail",
      "outputs": [],
      "payable": false,
      "stateMutability": "nonpayable",
      "type": "function"
    },
    {
      "constant": false,
      "inputs": [
        {
          "name": "usernameAddress",
          "type": "address"
        }
      ],
      "name": "approveUser",
      "outputs": [],
      "payable": false,
      "stateMutability": "nonpayable",
      "type": "function"
    },
    {
      "constant": true,
      "inputs": [
        {
          "name": "",
          "type": "address"
        }
      ],
      "name": "approvedAddresses",
      "outputs": [
        {
          "name": "",
          "type": "bool"
        }
      ],
      "payable": false,
      "stateMutability": "view",
      "type": "function"
    },
    {
      "inputs": [],
      "payable": false,
      "stateMutability": "nonpayable",
      "type": "constructor"
    },
    {
      "anonymous": false,
      "inputs": [
        {
          "indexed": true,
          "name": "usernameHash",
          "type": "bytes32"
        },
        {
          "indexed": true,
          "name": "addr",
          "type": "address"
        },
        {
          "indexed": false,
          "name": "encryptedUsername",
          "type": "string"
        },
        {
          "indexed": false,
          "name": "publicKey",
          "type": "string"
        }
      ],
      "name": "UserRegistered",
      "type": "event"
    },
    {
      "anonymous": false,
      "inputs": [
        {
          "indexed": true,
          "name": "from",
          "type": "address"
        },
        {
          "indexed": true,
          "name": "to",
          "type": "address"
        },
        {
          "indexed": false,
          "name": "mailHash",
          "type": "string"
        },
        {
          "indexed": false,
          "name": "threadHash",
          "type": "string"
        },
        {
          "indexed": true,
          "name": "threadId",
          "type": "bytes32"
        }
      ],
      "name": "EmailSent",
      "type": "event"
    },
    {
      "anonymous": false,
      "inputs": [
        {
          "indexed": true,
          "name": "usernameHash",
          "type": "bytes32"
        },
        {
          "indexed": false,
          "name": "ipfsHash",
          "type": "string"
        }
      ],
      "name": "ContactsUpdated",
      "type": "event"
    }
  ],
  "bytecode": "0x6060604052341561000f57600080fd5b33600360006101000a81548173ffffffffffffffffffffffffffffffffffffffff021916908373ffffffffffffffffffffffffffffffffffffffff160217905550610de68061005f6000396000f3006060604052600436106100a4576000357c0100000000000000000000000000000000000000000000000000000000900463ffffffff1680631785f53c146100a9578063429b62e5146100e25780635559610714610133578063641da4a21461019d578063704802751461024a5780638da5cb5b14610283578063bbbc4774146102d8578063cf77b505146103c5578063d624fdb6146104d1578063f136a8741461050a575b600080fd5b34156100b457600080fd5b6100e0600480803573ffffffffffffffffffffffffffffffffffffffff1690602001909190505061055b565b005b34156100ed57600080fd5b610119600480803573ffffffffffffffffffffffffffffffffffffffff16906020019091905050610612565b604051808215151515815260200191505060405180910390f35b341561013e57600080fd5b61019b60048080356000191690602001909190803590602001908201803590602001908080601f01602080910402602001604051908101604052809392919081815260200183838082843782019150505050505091905050610632565b005b34156101a857600080fd5b61024860048080356000191690602001909190803590602001908201803590602001908080601f0160208091040260200160405190810160405280939291908181526020018383808284378201915050505050509190803590602001908201803590602001908080601f016020809104026020016040519081016040528093929190818152602001838380828437820191505050505050919050506106d7565b005b341561025557600080fd5b610281600480803573ffffffffffffffffffffffffffffffffffffffff169060200190919050506108ca565b005b341561028e57600080fd5b610296610980565b604051808273ffffffffffffffffffffffffffffffffffffffff1673ffffffffffffffffffffffffffffffffffffffff16815260200191505060405180910390f35b34156102e357600080fd5b6103c360048080359060200190820180359060200190808060200260200160405190810160405280939291908181526020018383602002808284378201915050505050509190803590602001908201803590602001908080601f0160208091040260200160405190810160405280939291908181526020018383808284378201915050505050509190803590602001908201803590602001908080601f01602080910402602001604051908101604052809392919081815260200183838082843782019150505050505091908035600019169060200190919050506109a6565b005b34156103d057600080fd5b6104cf600480803573ffffffffffffffffffffffffffffffffffffffff169060200190919080359060200190820180359060200190808060200260200160405190810160405280939291908181526020018383602002808284378201915050505050509190803590602001908201803590602001908080601f0160208091040260200160405190810160405280939291908181526020018383808284378201915050505050509190803590602001908201803590602001908080601f0160208091040260200160405190810160405280939291908181526020018383808284378201915050505050509190803560001916906020019091905050610b1a565b005b34156104dc57600080fd5b610508600480803573ffffffffffffffffffffffffffffffffffffffff16906020019091905050610ce0565b005b341561051557600080fd5b610541600480803573ffffffffffffffffffffffffffffffffffffffff16906020019091905050610d9a565b604051808215151515815260200191505060405180910390f35b3373ffffffffffffffffffffffffffffffffffffffff16600360009054906101000a900473ffffffffffffffffffffffffffffffffffffffff1673ffffffffffffffffffffffffffffffffffffffff161415156105b757600080fd5b6000600160003373ffffffffffffffffffffffffffffffffffffffff1673ffffffffffffffffffffffffffffffffffffffff16815260200190815260200160002060006101000a81548160ff02191690831515021790555050565b60016020528060005260406000206000915054906101000a900460ff1681565b81600019167ffdf27c0ee3d6b70b30efed06f4b550e7902fbc48dd80d9521ab09c7fee953ac2826040518080602001828103825283818151815260200191508051906020019080838360005b8381101561069957808201518184015260208101905061067e565b50505050905090810190601f1680156106c65780820380516001836020036101000a031916815260200191505b509250505060405180910390a25050565b60001515600080856000191660001916815260200190815260200160002060009054906101000a900460ff161515148015610762575060011515600260003373ffffffffffffffffffffffffffffffffffffffff1673ffffffffffffffffffffffffffffffffffffffff16815260200190815260200160002060009054906101000a900460ff161515145b151561076d57600080fd5b6001600080856000191660001916815260200190815260200160002060006101000a81548160ff0219169083151502179055503373ffffffffffffffffffffffffffffffffffffffff1683600019167f6e632cbe1fdce5dfd25bd6898744f6b59ac518c5a5ae2da1250820a7842f2ebc8484604051808060200180602001838103835285818151815260200191508051906020019080838360005b83811015610823578082015181840152602081019050610808565b50505050905090810190601f1680156108505780820380516001836020036101000a031916815260200191505b50838103825284818151815260200191508051906020019080838360005b8381101561088957808201518184015260208101905061086e565b50505050905090810190601f1680156108b65780820380516001836020036101000a031916815260200191505b5094505050505060405180910390a3505050565b3373ffffffffffffffffffffffffffffffffffffffff16600360009054906101000a900473ffffffffffffffffffffffffffffffffffffffff1673ffffffffffffffffffffffffffffffffffffffff1614151561092657600080fd5b60018060003373ffffffffffffffffffffffffffffffffffffffff1673ffffffffffffffffffffffffffffffffffffffff16815260200190815260200160002060006101000a81548160ff02191690831515021790555050565b600360009054906101000a900473ffffffffffffffffffffffffffffffffffffffff1681565b60008090505b8451811015610b1357816000191685828151811015156109c857fe5b9060200190602002015173ffffffffffffffffffffffffffffffffffffffff163273ffffffffffffffffffffffffffffffffffffffff167f8e2b31a56259763b0b2e1ba74e7cbf7ce85f374680c36a242e35b4737e4121838787604051808060200180602001838103835285818151815260200191508051906020019080838360005b83811015610a66578082015181840152602081019050610a4b565b50505050905090810190601f168015610a935780820380516001836020036101000a031916815260200191505b50838103825284818151815260200191508051906020019080838360005b83811015610acc578082015181840152602081019050610ab1565b50505050905090810190601f168015610af95780820380516001836020036101000a031916815260200191505b5094505050505060405180910390a48060010190506109ac565b5050505050565b6000610b28858585856109a6565b8590508073ffffffffffffffffffffffffffffffffffffffff1663bbbc4774868686866040518563ffffffff167c0100000000000000000000000000000000000000000000000000000000028152600401808060200180602001806020018560001916600019168152602001848103845288818151815260200191508051906020019060200280838360005b83811015610bcf578082015181840152602081019050610bb4565b50505050905001848103835287818151815260200191508051906020019080838360005b83811015610c0e578082015181840152602081019050610bf3565b50505050905090810190601f168015610c3b5780820380516001836020036101000a031916815260200191505b50848103825286818151815260200191508051906020019080838360005b83811015610c74578082015181840152602081019050610c59565b50505050905090810190601f168015610ca15780820380516001836020036101000a031916815260200191505b50975050505050505050600060405180830381600087803b1515610cc457600080fd5b6102c65a03f11515610cd557600080fd5b505050505050505050565b60011515600160003373ffffffffffffffffffffffffffffffffffffffff1673ffffffffffffffffffffffffffffffffffffffff16815260200190815260200160002060009054906101000a900460ff161515141515610d3f57600080fd5b6001600260008373ffffffffffffffffffffffffffffffffffffffff1673ffffffffffffffffffffffffffffffffffffffff16815260200190815260200160002060006101000a81548160ff02191690831515021790555050565b60026020528060005260406000206000915054906101000a900460ff16815600a165627a7a723058200b6287f43f3adab7b552fb95bf0c3bdfbee4de412758ee303f429c3aa5ce1b910029",
  "source": "pragma solidity ^0.4.16;\n\nimport '../AbstractEmail.sol';\n\n///@title This is an example of a user written Email contract where an admin registers users\n///@dev Contract is an example of a user defined contract that implements the standard AbstractEmail interface\n///@dev We have a custom registration logic here so only an admin can approve mails for registration\ncontract PublicEmailExample is AbstractEmail {\n\n    modifier onlyOwner {\n        require(owner == msg.sender);\n        _;\n    }\n\n    mapping (bytes32 => bool) usernameHashExists;\n    mapping(address => bool) public admins;\n    mapping(address => bool) public approvedAddresses;\n\n    address public owner;\n    \n    event UserRegistered(bytes32 indexed usernameHash, address indexed addr, string encryptedUsername, string publicKey);\n    event EmailSent(address indexed from, address indexed to, string mailHash, string threadHash, bytes32 indexed threadId);\n    event ContactsUpdated(bytes32 indexed usernameHash, string ipfsHash);\n\n    function PublicEmailExample() public {\n        owner = msg.sender;\n    }\n\n    function approveUser(address usernameAddress) public {\n        require(admins[msg.sender] == true);\n\n        approvedAddresses[usernameAddress] = true;\n    }\n  \n    function registerUser(bytes32 usernameHash, string encryptedUsername, string publicKey) public {\n        require(usernameHashExists[usernameHash] == false && approvedAddresses[msg.sender] == true);\n\n        usernameHashExists[usernameHash] = true;\n\n        UserRegistered(usernameHash, msg.sender, encryptedUsername, publicKey);\n    }\n\n    function sendEmail(address[] recipients, string mailHash, string threadHash, bytes32 threadId) public {\n        \n        for (uint i = 0; i < recipients.length; ++i) {\n            EmailSent(tx.origin, recipients[i], mailHash, threadHash, threadId);\n        }\n    }\n\n    function sendExternalEmail(AbstractEmail externalContractAddress, address[] recipients, string mailHash, string threadHash, bytes32 threadId) public {\n        sendEmail(recipients, mailHash, threadHash, threadId);\n\n        AbstractEmail externalEmailContract = AbstractEmail(externalContractAddress);\n        externalEmailContract.sendEmail(recipients, mailHash, threadHash, threadId);\n    }\n\n    function updateContacts(bytes32 usernameHash, string ipfsHash) public {\n        ContactsUpdated(usernameHash, ipfsHash);\n    }\n\n    function addAdmin(address adminAddress) public onlyOwner {\n        admins[msg.sender] = true;\n    }\n\n    function removeAdmin(address adminAddress) public onlyOwner {\n        admins[msg.sender] = false;\n    }\n}",
  "sourcePath": "/Users/nenadpalinkasevic/Desktop/blockchain/MelonMail/solidity/contracts/examples/PublicEmailExample.sol",
  "compiler": {
    "name": "solc",
    "version": "0.4.18+commit.9cf6e910.Emscripten.clang"
  },
  "schemaVersion": "1.0.1",
  "updatedAt": "2017-11-03T15:29:33.218Z"
}